:020000040000FA
:08000000803102288731FD2F39
:100F3E0016302100970008007030210099009A01A8
:100F4E0098012200960108008731D2278731873118
:100F5E00A327873187319F27873108008731AB2739
:100F6E008731031022000C1C03140318BF2FC22F4D
:100F7E0022000C14C42F22000C100B30F10026306E
:100F8E00F0005E30890BC92FF00BC92FF10BC92F62
:100F9E00B82F8031022822008C018D018E0136304F
:100FAE0021008C00F0308D00FF308E00CF302300FA
:100FBE008E0030308D0016308C0024008D018C0197
:100FCE008E012100951725008C018D018E01373081
:100FDE0026008C00F0308D00FF308E003F30270051
:100FEE008C00F0308D00FF308E000800200087311D
:020FFE00B52F0D
:020000040001F9
:04000E00E43FFF3E8E
:00000001FF
